{
  "contractName": "DocumentStorage",
  "abi": [
    {
      "anonymous": false,
      "inputs": [
        {
          "indexed": false,
          "internalType": "string",
          "name": "userPublicKey",
          "type": "string"
        },
        {
          "indexed": false,
          "internalType": "address",
          "name": "issuer",
          "type": "address"
        },
        {
          "indexed": false,
          "internalType": "string",
          "name": "documentHash",
          "type": "string"
        }
      ],
      "name": "DocumentAdded",
      "type": "event"
    },
    {
      "anonymous": false,
      "inputs": [
        {
          "indexed": false,
          "internalType": "string",
          "name": "publicKey",
          "type": "string"
        }
      ],
      "name": "UserAdded",
      "type": "event"
    },
    {
      "inputs": [
        {
          "internalType": "string",
          "name": "_publicKey",
          "type": "string"
        }
      ],
      "name": "registerUser",
      "outputs": [],
      "stateMutability": "nonpayable",
      "type": "function"
    },
    {
      "inputs": [
        {
          "internalType": "string",
          "name": "_userPublicKey",
          "type": "string"
        },
        {
          "internalType": "address",
          "name": "_issuer",
          "type": "address"
        },
        {
          "internalType": "string",
          "name": "_documentHash",
          "type": "string"
        },
        {
          "internalType": "string",
          "name": "_encryptedDocument",
          "type": "string"
        }
      ],
      "name": "addDocument",
      "outputs": [],
      "stateMutability": "nonpayable",
      "type": "function"
    },
    {
      "inputs": [
        {
          "internalType": "string",
          "name": "_userPublicKey",
          "type": "string"
        }
      ],
      "name": "getDocuments",
      "outputs": [
        {
          "components": [
            {
              "internalType": "address",
              "name": "issuer",
              "type": "address"
            },
            {
              "internalType": "string",
              "name": "documentHash",
              "type": "string"
            },
            {
              "internalType": "string",
              "name": "encryptedDocument",
              "type": "string"
            },
            {
              "internalType": "uint256",
              "name": "createdAt",
              "type": "uint256"
            }
          ],
          "internalType": "struct DocumentStorage.Document[]",
          "name": "",
          "type": "tuple[]"
        }
      ],
      "stateMutability": "view",
      "type": "function",
      "constant": true
    },
    {
      "inputs": [
        {
          "internalType": "string",
          "name": "_userPublicKey",
          "type": "string"
        }
      ],
      "name": "getDocumentCount",
      "outputs": [
        {
          "internalType": "uint256",
          "name": "",
          "type": "uint256"
        }
      ],
      "stateMutability": "view",
      "type": "function",
      "constant": true
    }
  ],
  "bytecode": "0x608060405234801561001057600080fd5b50610830806100206000396000f3fe608060405234801561001057600080fd5b506004361061004c5760003560e01c8063019e7b32146100515780633b0a613914610066578063704f1b941461008f578063d55ce039146100a2575b600080fd5b61006461005f366004610588565b6100c2565b005b61007961007436600461054d565b6101c6565b6040516100869190610674565b60405180910390f35b61006461009d36600461054d565b610387565b6100b56100b036600461054d565b61040a565b6040516100869190610770565b604080516080810182526001600160a01b03851681526020810184905280820183905242606082015290516001906100fb908790610658565b90815260405160209181900382019020805460018082018355600092835291839020845160049092020180546001600160a01b0319166001600160a01b039092169190911781558383015180518594929361015b93908501920190610433565b5060408201518051610177916002840191602090910190610433565b506060820151816003015550507fe52307ed6834b1748d08ab83ab80743b3d9d94cc86659577f299a0bf02274e0f8585856040516101b793929190610732565b60405180910390a15050505050565b60606001826040516101d89190610658565b9081526020016040518091039020805480602002602001604051908101604052809291908181526020016000905b8282101561037c57600084815260209081902060408051608081019091526004850290910180546001600160a01b03168252600181018054929391929184019161024f906107a9565b80601f016020809104026020016040519081016040528092919081815260200182805461027b906107a9565b80156102c85780601f1061029d576101008083540402835291602001916102c8565b820191906000526020600020905b8154815290600101906020018083116102ab57829003601f168201915b505050505081526020016002820180546102e1906107a9565b80601f016020809104026020016040519081016040528092919081815260200182805461030d906107a9565b801561035a5780601f1061032f5761010080835404028352916020019161035a565b820191906000526020600020905b81548152906001019060200180831161033d57829003601f168201915b5050505050815260200160038201548152505081526020019060010190610206565b505050509050919050565b6040805160208101825233815290516000906103a4908490610658565b908152604051908190036020018120915182546001600160a01b039091166001600160a01b0319909116179091557fdb8f9fd4bfba5ae615ae02e8b4d281b887225fd3d34a5ac7b8d78df768bb63e7906103ff908390610718565b60405180910390a150565b600060018260405161041c9190610658565b908152604051908190036020019020549050919050565b82805461043f906107a9565b90600052602060002090601f01602090048101928261046157600085556104a7565b82601f1061047a57805160ff19168380011785556104a7565b828001600101855582156104a7579182015b828111156104a757825182559160200191906001019061048c565b506104b39291506104b7565b5090565b5b808211156104b357600081556001016104b8565b600082601f8301126104dc578081fd5b813567ffffffffffffffff808211156104f7576104f76107e4565b604051601f8301601f19168101602001828111828210171561051b5761051b6107e4565b604052828152848301602001861015610532578384fd5b82602086016020830137918201602001929092529392505050565b60006020828403121561055e578081fd5b813567ffffffffffffffff811115610574578182fd5b610580848285016104cc565b949350505050565b6000806000806080858703121561059d578283fd5b843567ffffffffffffffff808211156105b4578485fd5b6105c0888389016104cc565b9550602087013591506001600160a01b03821682146105dd578485fd5b909350604086013590808211156105f2578384fd5b6105fe888389016104cc565b93506060870135915080821115610613578283fd5b50610620878288016104cc565b91505092959194509250565b60008151808452610644816020860160208601610779565b601f01601f19169290920160200192915050565b6000825161066a818460208701610779565b9190910192915050565b60208082528251828201819052600091906040908185019080840286018301878501865b8381101561070a57888303603f19018552815180516001600160a01b03168452878101516080898601819052906106d18287018261062c565b91505087820151858203898701526106e9828261062c565b60609384015196909301959095525094870194925090860190600101610698565b509098975050505050505050565b60006020825261072b602083018461062c565b9392505050565b600060608252610745606083018661062c565b6001600160a01b03851660208401528281036040840152610766818561062c565b9695505050505050565b90815260200190565b60005b8381101561079457818101518382015260200161077c565b838111156107a3576000848401525b50505050565b6002810460018216806107bd57607f821691505b602082108114156107de57634e487b7160e01b600052602260045260246000fd5b50919050565b634e487b7160e01b600052604160045260246000fdfea2646970667358221220a3ec1f83929788b7255fe91b98fcc8b759bb9807ee89351e7906266ebd4f936464736f6c63430008000033",
  "immutableReferences": {},
  "source": "// SPDX-License-Identifier: MIT\r\npragma solidity ^0.8.0;\r\n\r\ncontract DocumentStorage {\r\n    struct User {\r\n        address publicKey;\r\n    }\r\n\r\n    struct Document {\r\n        address issuer;        \r\n        string documentHash;      \r\n        string encryptedDocument;\r\n        uint256 createdAt;         \r\n    }\r\n\r\n    mapping(string => User) private users;\r\n\r\n    mapping(string => Document[]) private userDocuments;\r\n\r\n    event DocumentAdded(string userPublicKey, address issuer, string documentHash);\r\n    \r\n    event UserAdded(string publicKey);\r\n\r\n    function registerUser(string memory _publicKey) public {\r\n        users[_publicKey] = User({\r\n            publicKey: msg.sender \r\n        });\r\n\r\n        emit UserAdded(_publicKey);\r\n    }\r\n\r\n    // Function to add a new document\r\n    function addDocument(string memory _userPublicKey, address _issuer, string memory _documentHash, string memory _encryptedDocument) public {\r\n        Document memory newDoc = Document({\r\n            issuer: _issuer,\r\n            documentHash: _documentHash,\r\n            encryptedDocument: _encryptedDocument,\r\n            createdAt: block.timestamp\r\n        });\r\n\r\n        userDocuments[_userPublicKey].push(newDoc);\r\n\r\n        emit DocumentAdded(_userPublicKey, _issuer, _documentHash);\r\n    }\r\n\r\n    // Function to retrieve all documents for a user\r\n    function getDocuments(string memory _userPublicKey) public view returns (Document[] memory) {\r\n        return userDocuments[_userPublicKey];\r\n    }\r\n\r\n    // Function to get the count of documents for a user\r\n    function getDocumentCount(string memory _userPublicKey) public view returns (uint256) {\r\n        return userDocuments[_userPublicKey].length;\r\n    }\r\n}\r\n",
  "sourcePath": "C:\\Users\\mahav\\OneDrive\\Desktop\\test\\smart_contract\\contracts\\Document.sol",
  "compiler": {
    "name": "solc",
    "version": "0.8.0+commit.c7dfd78e.Emscripten.clang"
  },
  "schemaVersion": "3.4.16",
  "updatedAt": "2024-09-29T05:13:09.778Z",
  "networkType": "ethereum",
  "devdoc": {
    "kind": "dev",
    "methods": {},
    "version": 1
  },
  "userdoc": {
    "kind": "user",
    "methods": {},
    "version": 1
  }
}