{
  "contractName": "SimpleStorage",
  "abi": [
    {
      "anonymous": false,
      "inputs": [
        {
          "indexed": false,
          "internalType": "uint256",
          "name": "newNumber",
          "type": "uint256"
        }
      ],
      "name": "NumberChanged",
      "type": "event"
    },
    {
      "inputs": [
        {
          "internalType": "uint256",
          "name": "_number",
          "type": "uint256"
        }
      ],
      "name": "setNumber",
      "outputs": [],
      "stateMutability": "nonpayable",
      "type": "function"
    },
    {
      "inputs": [],
      "name": "getNumber",
      "outputs": [
        {
          "internalType": "uint256",
          "name": "",
          "type": "uint256"
        }
      ],
      "stateMutability": "view",
      "type": "function",
      "constant": true
    },
    {
      "inputs": [],
      "name": "increment",
      "outputs": [],
      "stateMutability": "nonpayable",
      "type": "function"
    },
    {
      "inputs": [],
      "name": "decrement",
      "outputs": [],
      "stateMutability": "nonpayable",
      "type": "function"
    }
  ],
  "bytecode": "0x6080604052600560005534801561001557600080fd5b5061023b806100256000396000f3fe608060405234801561001057600080fd5b506004361061004c5760003560e01c80632baeceb7146100515780633fb5c1cb1461005b578063d09de08a1461006e578063f2c9ecd814610076575b600080fd5b610059610094565b005b610059610069366004610168565b610110565b610059610150565b61007e610162565b60405161008b91906101b7565b60405180910390f35b60008054116100be5760405162461bcd60e51b81526004016100b590610180565b60405180910390fd5b60016000808282546100d091906101d8565b90915550506000546040517f2fd81fd19d3c5c4b396dd13f451dafc8bcac1b3094c49c5fa90e68456323f0e391610106916101b7565b60405180910390a1565b60008190556040517f2fd81fd19d3c5c4b396dd13f451dafc8bcac1b3094c49c5fa90e68456323f0e3906101459083906101b7565b60405180910390a150565b60016000808282546100d091906101c0565b60005490565b600060208284031215610179578081fd5b5035919050565b6020808252601b908201527f43616e6e6f742064656372656d656e742062656c6f77207a65726f0000000000604082015260600190565b90815260200190565b600082198211156101d3576101d36101ef565b500190565b6000828210156101ea576101ea6101ef565b500390565b634e487b7160e01b600052601160045260246000fdfea2646970667358221220f2ba8fd493991be5c8eea7c70018d908ba5e3c82d9b58e79e85e932fd9fbb74f64736f6c63430008000033",
  "immutableReferences": {},
  "source": "// SPDX-License-Identifier: MIT\r\npragma solidity ^0.8.0;\r\n\r\ncontract SimpleStorage {\r\n    uint256 private storedNumber = 5;\r\n\r\n    event NumberChanged(uint256 newNumber);\r\n\r\n    function setNumber(uint256 _number) public {\r\n        storedNumber = _number;\r\n        emit NumberChanged(_number);\r\n    }\r\n\r\n    function getNumber() public view returns (uint256) {\r\n        return storedNumber;\r\n    }\r\n\r\n    function increment() public {\r\n        storedNumber += 1;\r\n        emit NumberChanged(storedNumber);\r\n    }\r\n\r\n    function decrement() public {\r\n        require(storedNumber > 0, \"Cannot decrement below zero\");\r\n        storedNumber -= 1;\r\n        emit NumberChanged(storedNumber);\r\n    }\r\n}\r\n",
  "sourcePath": "C:\\Users\\mahav\\OneDrive\\Desktop\\test\\smart_contract\\contracts\\SimpleStorage.sol",
  "compiler": {
    "name": "solc",
    "version": "0.8.0+commit.c7dfd78e.Emscripten.clang"
  },
  "schemaVersion": "3.4.16",
  "updatedAt": "2024-09-28T17:57:50.532Z",
  "networkType": "ethereum",
  "devdoc": {
    "kind": "dev",
    "methods": {},
    "version": 1
  },
  "userdoc": {
    "kind": "user",
    "methods": {},
    "version": 1
  }
}